:060000000C9442000C9478
:100006006F000C9400000C9400000C9400000C94FB
:1000160000000C9400000C9400000C9400000C945A
:1000260000000C9400000C9400000C9400000C944A
:1000360000000C9400000C9400000C9400000C943A
:1000460000000C9400000C9400000C940000102793
:10005600E80364000A00010000100001100001001E
:1000660000004B6579203D2025322E32640080C089
:100076000100060066000200700274000000F89499
:10008600EE27ECBBF1E0FBBFEBBFE5BF8DE0A2E0E6
:10009600BB27ED938A95E9F780E098E0A0E6ED931B
:1000A6000197E9F7E6E7F0E085919591009761F011
:1000B600A591B59105901590BF01F00105900D929F
:1000C6000197E1F7FB01F0CFEFE5EDBFE8E0EEBF0A
:1000D600C0E6D2E00C940A010A921A92FA926A9346
:1000E6007A938A939A93AA93BA93EA93FA93EFB779
:1000F600EA93E0EFEBBBEEEF4E2E7724E4E07E16BC
:1001060070F44BBAAAE0B0E00E941E04E9B3E07FA7
:10011600E03F29F4440CE1E04E2A7394EFCFE9B3B3
:10012600E07FAE2FE42DEF70EA2B5E2EF0E0EE3E80
:10013600A0E0FA0711F4E1E059C0EE3DA0E0FA07AD
:1001460011F4E2E053C0EE3BA0E0FA0711F4E3E05D
:100156004DC0EE37A0E0FA0711F4E4E047C0ED3EEB
:10016600A0E0FA0711F4E5E041C0ED3DA0E0FA0792
:1001760011F4E6E03BC0ED3BA0E0FA0711F4E7E03E
:1001860035C0ED37A0E0FA0711F4E8E02FC0EB3EEA
:10019600A0E0FA0711F4E9E029C0EB3DA0E0FA0778
:1001A60011F4EAE023C0EB3BA0E0FA0711F4EBE020
:1001B6001DC0EB37A0E0FA0711F4ECE017C0E73EEC
:1001C600A0E0FA0711F4EDE011C0E73DA0E0FA0760
:1001D60011F4EEE00BC0E73BA0E0FA0711F4EFE004
:1001E60005C0E737A0E0FA0711F4E0E16E2EE0EF74
:1001F600EBBBE991EFBFF991E991B991A991999179
:10020600899179916991F990199009901895E0EF83
:10021600EBBBEFE0EABBE0E0E8BBE7BBE5BBE4BB7A
:10022600E2BBE1BBE3BFE2BFECBFEFBDEEBDEDBDA0
:10023600ECBDE7BDE6BDEBBDEABDE9BDE8BDE2BD8F
:10024600E5BDE4BDE3BDEBB7E064EBBFE2E0E5BFCF
:10025600E0E0E4BFE0E4EABFE0E0E9BFE0E8E8B9F7
:10026600E0E0E0BFA0E10E949D037894E0E6F2E0C2
:10027600FA93EA93E8E6F0E0FA93EA93E62DFF278D
:10028600662777270E94380484E00E94CA022896CF
:10029600E0E0EA93A0E00E943E03A0E6B2E00E94FE
:1002A6007B03E4CFFFCFBA93AA931A930A93AA814A
:1002B600BB8112960E943004309759F1AA81BB8106
:1002C60014960E9430048F01309761F00230E0E00E
:1002D6001E0798F0F80131978F01AA81BB81149609
:1002E600ED93FC93AA81BB811296ED91FD91319617
:1002F600FE93EE933197AC81A083AA81BB810E94C5
:100306003004FF232AF0ED91FD913196FE93EE9392
:1003160006C0AA81BB81EFEFFFEFED93FC93198135
:10032600088125960895BA93AA9326970E943D04BC
:1003360010E0AC85BD85E0E0F0E0ED93FC93EA8942
:10034600FB893196EA8BFB8B3197E4912E2FE030B7
:1003560009F415C1E12FE03039F4253211F411E02A
:1003660002C00E94E9030AC1E130A9F4253219F45A
:100376000E94E90302C112E040E000E02D3211F4D0
:1003860001E0FCC02B3211F44BE2F8C0203211F42C
:1003960040E2F4C002C0E23039F450E013E020330A
:1003A60011F40068EBC003C0E33009F0E7C0203366
:1003B60010F02A3308F007C0AAE05A9F502DE22F0A
:1003C600E0535E0FDBC0E22FE33649F40E94F003F0
:1003D600E889F989A481AA930E94F603CEC0E3377F
:1003E60041F40E94F0030E94FC030E94D0031E2FDA
:1003F6000AC0E03761F40E94F0030E94FC030E94E9
:10040600DC031E2F086002600F7730E034C0E4364C
:1004160011F0E93611F4046002C0E53731F4E4E581
:10042600F0E0EE83FF8315E00CC0E83511F40860B8
:1004360003C0E83709F0A1C0EEE5F0E0EE83FF83E4
:1004460014E002FF14C00E94F0030E940604AB856C
:10045600AA233AF4EA85FB850E942C04EA87FB87E7
:100466004DE2403011F01F5F01C00B7F04C00E94B7
:10047600F0030E94060400FD11C0151778F407FF6B
:1004860008C002FF04C00B7F242F115001C020E3D7
:1004960001C020E20E94E9035150EFCF312F01FF46
:1004A60017C03030A1F003FF06C0EE81FF81259111
:1004B600EE83FF8305C0AE81BF812D91AE83BF83DE
:1004C6000E94E903503009F051503150EACF4BC039
:1004D60020E3EE81FF810E943404E887F987EE81EC
:1004E600FF813296EE83FF83E885F985AA85BB8571
:1004F600AE17BF0750F02F5FA885B985EA85FB8543
:10050600EA1BFB0BEA87FB87EFCF2A3328F003FFB2
:1005160002C0295F01C0295D04FD1AC0213320F401
:10052600A885B985119709F409C0531710F000FF83
:1005360001C013C020E207FF0BC020E3006102FFE9
:1005460007C00B7F4A930E94F603503009F05150C2
:100556000E94E903503009F051503150A885B98501
:10056600129708F0B5CF00FF08C0503031F0515057
:10057600E0E2EA930E94F603F8CF10E0E0CEAC8505
:10058600BD850E9430040E94440464960895FF923B
:10059600F82E26970E943F040E940E04309719F405
:1005A600EFEFFFEF23C0DE0116960E9428048D01AF
:1005B6000E940E04EE83FF83E0E0E887E987DE0110
:1005C6001A960E9428040E943004FA93EA931A931A
:1005D6000A93E6E5F1E0FA93EA93DE011A96A3DEC2
:1005E6009F01AE81BF81E0E0EC93F9010E944604D1
:1005F6002A96FF900895FFE0FA95F1F70895A7B3BC
:10060600AF70A7BBC19AC098F6DFC29AF4DFA6B353
:10061600C298F1DFC29AEFDFC298A7FDF5CF089521
:10062600A07FAB2BA8BBC29A0E94FE02C2980E9472
:10063600FE020895AA93C198A7B3A76FA7BBB8B344
:10064600BF70A881EDDFA881A295EADFC19A0C945C
:10065600CE03C29A0E94FE02E6B3C2980E94FE0230
:10066600E07F08950E94FE02F4DFAE2FF2DFC1980C
:10067600E295EA2B0895AA930E940203E881F0E02E
:10068600E059FD4FE081A981AE0F0E941D039980BC
:100696008880229608950E940203A2E00E941D030C
:1006A6000E940203ACE00E941D030E940203A1E027
:1006B6000E941D03E0E08E2E9E2E0895AA93EF93CE
:1006C600FF93A8816894AA3019F0E8949B1430F03F
:1006D6008394E0E0EA93A82DCEDF36F093948FDF83
:1006E600C09AA8810E941D03FF91EF910C94CE033E
:1006F600BA93AA931A93A981BA81ED91A983BA8371
:100706001E2FE03019F0A12FD9DFF5CF18812396DF
:100716000895AA27BB271197F1F70895AA93C198C0
:10072600A7B3A76FA7BBB8B3BF70A8810E94130376
:10073600C19A31C0AA93C298C098B880E881E0589F
:10074600E0937202E881E054E09373020E9415047C
:100756000E9415040E941504DCDFA0E2DFDFD9DF6A
:10076600A8E20E941A04A4E00E941A04A5E80E94C6
:100776001A04A7B3AF70A7BBC19A0E943503E53030
:1007860011F0E0E008C00E940203A6E00E941D03EB
:100796000E944E03E1E021960895BA93AA93A99187
:1007A600B991EE27FF276D91662311F03196FBCFA5
:1007B6000895BA93AA93AA27BB27E991F9910590C0
:1007C600002011F01196FBCFFD0108952A93AD8507
:1007D600BE85EF85F88909950895E889F9893497E2
:1007E600E88BF98B0895AD85BE85EF85F889099567
:1007F6000895A889B98914960E943004EE83FF8370
:10080600AE81BF810895A889B98914960E943004E3
:10081600EA87FB870895DE011C960E9428040E9441
:10082600300408950E948C03A0E30C9491030E9467
:100836001D030C948C03109639F0A89580ED97E073
:100846000197F1F71197C9F708950024AF0DB01D70
:100856000895F195E195F0400895ED91FC91119779
:1008660008950590F491E02D08957A936A93FA938A
:10087600EA9308955A934A933A932A931A930A93BA
:1008860008955D814C813B812A81198108810895F3
:00000001FF
