:080000000C943E000C946B000F
:100008000C9400000C9400000C9400000C94000068
:100018000C9400000C9400000C9400000C94000058
:100028000C9400000C9400000C9400000C94000048
:100038000C9400000C9400000C9400000C94000038
:100048000C9400000C9400000C9400001027E803A6
:1000580064000A0001000010000110000100766130
:100068006C75653D25303364000080C00200710264
:1000780072000000F894EE27ECBBF1E0FBBFEBBF89
:10008800E5BF8DE0A2E0BB27ED938A95E9F780E014
:1000980098E0A0E6ED930197E9F7E4E7F0E08591B1
:1000A8009591009761F0A591B59105901590BF01C4
:1000B800F00105900D920197E1F7FB01F0CFEFE514
:1000C800EDBFE8E0EEBFC0E6D2E00C947700EA931B
:1000D800FA93EFB7EA93F20131962F01E991EFBF56
:1000E800F991E991189524D0A0E10E94D102789461
:1000F800E0E6F2E0FA93EA93E6E6F0E0FA93EA93B0
:10010800F2010E9464030E94710384E00E943E028F
:100118002896E0E0EA93A0E00E949202A0E6B2E00E
:100128000E94C002A4EFB1E00E945203E1CFFFCFCA
:10013800E0E0EABBEBBBE7BBE8BBE4BBE5BBE1BB8C
:10014800E2BBE3BFE2BFECBFEFBDEEBDEDBDECBD72
:10015800E7BDE6BDEBBDEABDE9BDE8BDE2BDE5BD75
:10016800E4BDE3BDE9BFEBB7E064EBBFE3E0E5BFA7
:10017800E0E0E4BFE0E4EABFE0E0EAB9E0E8E8B9DB
:10018800E0E0E0BFE6B9EDB9E6BF0895BA93AA93F7
:100198001A930A93AA81BB8112960E946903309729
:1001A80059F1AA81BB8114960E9469038F01309787
:1001B80061F00230E0E01E0798F0F80131978F01F6
:1001C800AA81BB811496ED93FC93AA81BB811296F8
:1001D800ED91FD913196FE93EE933197AC81A0831A
:1001E800AA81BB810E946903FF232AF0ED91FD914A
:1001F8003196FE93EE9306C0AA81BB81EFEFFFEF25
:10020800ED93FC931981088125960895BA93AA93D2
:1002180026970E94760310E0AC85BD85E0E0F0E00B
:10022800ED93FC93EA89FB893196EA8BFB8B319736
:10023800E4912E2FE03009F415C1E12FE03039F4B4
:10024800253211F411E002C00E9418030AC1E130FE
:10025800A9F4253219F40E94180302C112E040E003
:1002680000E02D3211F401E0FCC02B3211F44BE216
:10027800F8C0203211F440E2F4C002C0E23039F490
:1002880050E013E0203311F40068EBC003C0E33002
:1002980009F0E7C0203310F02A3308F007C0AAE0BD
:1002A8005A9F502DE22FE0535E0FDBC0E22FE3365A
:1002B80049F40E941F03E889F989A481AA930E943E
:1002C8002503CEC0E33741F40E941F030E942B038D
:1002D8000E94FF021E2F0AC0E03761F40E941F032C
:1002E8000E942B030E940B031E2F086002600F77E9
:1002F80030E034C0E43611F0E93611F4046002C08D
:10030800E53731F4E4E5F0E0EE83FF8315E00CC057
:10031800E83511F4086003C0E83709F0A1C0EEE53C
:10032800F0E0EE83FF8314E002FF14C00E941F0375
:100338000E943503AB85AA233AF4EA85FB850E941F
:100348006003EA87FB874DE2403011F01F5F01C070
:100358000B7F04C00E941F030E94350300FD11C0DB
:10036800151778F407FF08C002FF04C00B7F242F7D
:10037800115001C020E301C020E20E94180351502F
:10038800EFCF312F01FF17C03030A1F003FF06C0B7
:10039800EE81FF812591EE83FF8305C0AE81BF8189
:1003A8002D91AE83BF830E941803503009F051503D
:1003B8003150EACF4BC020E3EE81FF810E946D03EC
:1003C800E887F987EE81FF813296EE83FF83E8851F
:1003D800F985AA85BB85AE17BF0750F02F5FA885A2
:1003E800B985EA85FB85EA1BFB0BEA87FB87EFCF1C
:1003F8002A3328F003FF02C0295F01C0295D04FDEC
:100408001AC0213320F4A885B985119709F409C0C9
:10041800531710F000FF01C013C020E207FF0BC004
:1004280020E3006102FF07C00B7F4A930E94250367
:10043800503009F051500E941803503009F05150C3
:100448003150A885B985129708F0B5CF00FF08C0CC
:10045800503031F05150E0E2EA930E942503F8CF82
:1004680010E0E0CEAC85BD850E9469030E947D0343
:1004780064960895FF92F82E26970E9478030E94AA
:100488003D03309719F4EFEFFFEF23C0DE01169616
:100498000E945C038D010E943D03EE83FF83E0E030
:1004A800E887E987DE011A960E945C030E946903C7
:1004B800FA93EA931A930A93EAECF0E0FA93EA9330
:1004C800DE011A96A3DE9F01AE81BF81E0E0EC93C6
:1004D800F9010E947F032A96FF900895AA93E8B332
:1004E800EF70AE2FE881E07FEA2BE8BB8DE08A95BC
:1004F800F1F7C39A8DE08A95F1F7C3988DE08A9554
:10050800F1F777C0AA93A881E9DFE881E295E8834B
:10051800A881E4DF85E88A95F1F76BC0AA93E881A2
:10052800F0E0EF58FD4FE081A981AE0FEBDF798055
:10053800688022960895A2E00E944403ACE0E2DFBE
:10054800A1E00E944403E0E06E2E7E2E0895AA9357
:10055800A881AA3011F0791448F0E0E0EA93639496
:10056800A62DDCDFA881AA3009F443C07394C19A90
:10057800A881C8DFC1983DC0BA93AA931A93A981EC
:10058800BA81ED91A983BA831E2FE03019F0A12F0B
:10059800DEDFF5CF188123960895AA93E7B3E06FBD
:1005A800E7BBBB9AB99ABA9AC398C198C29898807F
:1005B800E881E058E0937302E881E054E093740224
:1005C800A4E1B0E00E9452030E944A030E944A0339
:1005D8000E944A03A0E282DF88EC90E00197F1F7DD
:1005E800A8E290DFA4E08EDFA5E88CDFA6E08ADF32
:1005F800A2DF21960895BA93AA93A991B991EE27FB
:10060800FF276D91662311F03196FBCF0895BA93B9
:10061800AA93AA27BB27E991F9910590002011F028
:100628001196FBCFFD0108952A93AD85BE85EF8510
:10063800F88909950895E889F9893497E88BF98B41
:100648000895AD85BE85EF85F88909950895A8892F
:10065800B98914960E946903EE83FF83AE81BF8136
:100668000895A889B98914960E946903EA87FB87C7
:100678000895DE011C960E945C030E946903089598
:100688000E948602A3E0B0E00C945203A0E30E940B
:10069800720288EC90E00197F1F70895109639F00E
:1006A800A89580ED97E00197F1F71197C9F708959C
:1006B8000024AF0DB01D0895F195E195F04008951F
:1006C8006F2F660F660B762F0895ED91FC911197A9
:1006D80008950590F491E02D08957A936A93FA931A
:1006E800EA9308955A934A933A932A931A930A934A
:1006F80008955D814C813B812A8119810881089583
:00000001FF
