:080000000C9436000C94000082
:100008000C9400000C9400000C9400000C94000068
:100018000C9400000C9400000C9400000C94000058
:100028000C9400000C9400000C9400000C94000048
:100038000C9400000C9400000C9400000C94000038
:100048000C9400000C9400000C94000068656C6C23
:100058006F00746F20616C6C000080C00200600249
:1000680062000000F894EE27ECBBF1E0FBBFEBBFA9
:10007800E5BF8DE0A2E0BB27ED938A95E9F780E024
:1000880098E0A0E6ED930197E9F7E4E6F0E08591C2
:100098009591009761F0A591B59105901590BF01D4
:1000A800F00105900D920197E1F7FB01F0CFEFE524
:1000B800EDBFE8E0EEBFC0E6D2E00C94630012D0DA
:1000C800A0E197D0E0E0EA93A0E054D0A4E5B0E046
:1000D800BBD0E6E0EA93A1E04DD0AAE5B0E0B4D009
:1000E800F1CFFFCFE0E0EABBE1E0EBBBE0E0E7BB4C
:1000F800E8BBE4BBE5BBE1BBE2BBE3BFE2BFECBFEF
:10010800EFBDEEBDEDBDECBDE7BDE6BDEBBDEABDA7
:10011800E9BDE8BDE2BDE5BDE4BDE3BDE9BFE5BFBE
:10012800E4BFEAB9E0E8E8B9E0E0E0BFE6B9EDB974
:10013800E6BF0895AA93E8B3EF70AE2FE881E07F99
:10014800EA2BE8BB8DE08A95F1F7C39A8DE08A9592
:10015800F1F7C3988DE08A95F1F774C0AA93A88146
:10016800E9DFE881E295E883A881E4DF85E88A95FC
:10017800F1F768C0AA93E881F0E0E05AFD4FE0810A
:10018800A981AE0FEBDF5980488022960895A2E03E
:1001980061D0ACE0E3DFA1E05DD0E0E04E2E5E2E62
:1001A8000895AA93A881AA3011F0571448F0E0E006
:1001B800EA934394A42DDEDFA881AA3009F442C053
:1001C8005394C19AA881CADFC1983CC0BA93AA9334
:1001D8001A93E981FA813196E983FA833197E49198
:1001E8001E2FE03019F0A12FDCDFF3CF1881239602
:1001F8000895AA93E7B3E06FE7BBBB9AB99ABA9A96
:10020800C398C198C2987880E881E058E093620268
:10021800E881E054E0936302A4E1B0E00E943A016F
:100228001ED01DD01CD0A0E285DF88EC90E001979D
:10023800F1F7A8E293DFA4E091DFA5E88FDFA6E05D
:100248008DDFA5DF21960895C1DFA4EFB1E00E94FC
:100258003A019DCF83DFA3E0B0E00C943A01A0E31C
:1002680069DF88EC90E00197F1F70895109639F06E
:10027800A89580ED97E00197F1F71197C9F70895D0
:00000001FF
