:100000000C9444000C9400000C9400000C9400002C
:100010000C9400000C9400000C9400000C94000060
:100020000C9400000C9400000C9400000C94000050
:100030000C9400000C9400000C9400000C94000040
:100040000C9400000C9400000C9400000C94000030
:100050000C9400003132334134353642373839435D
:100060002A3023441027E80364000A00010000102E
:100070000001100001004B65793A2025630080C023
:10008000020070027E000000F894EE27ECBBF1E065
:10009000FBBFEBBFE5BF8DE0A2E0BB27ED938A95E8
:1000A000E9F780E098E0A0E6ED930197E9F7E0E852
:1000B000F0E085919591009761F0A591B59105903B
:1000C0001590BF01F00105900D920197E1F7FB013A
:1000D000F0CFEFE5EDBFE8E0EEBFC0E6D2E00C9474
:1000E0007100E0E0EBBBEABBE8BBEFEFE7BBE0E0B1
:1000F000E5BBE4BBE2BBE1BBE3BFE2BFECBFEFBDEE
:10010000EEBDEDBDECBDE7BDE6BDEBBDEABDE9BDB5
:10011000E8BDE2BDE5BDE4BDE3BDE5BFE4BFE9BFC9
:10012000E0E8E8B9E0E0E0BFA0E10E9437030E9408
:100130007E03EFEFE515D9F3E52DF0E0EE3EA0E00C
:10014000FA0711F444245CC0EE3DA0E0FA0711F474
:10015000E1E055C0EE3BA0E0FA0711F4E2E04FC049
:10016000EE37A0E0FA0711F4E3E049C0ED3EA0E06D
:10017000FA0711F4E4E043C0ED3DA0E0FA0711F402
:10018000E5E03DC0ED3BA0E0FA0711F4E6E037C042
:10019000ED37A0E0FA0711F4E7E031C0EB3EA0E054
:1001A000FA0711F4E8E02BC0EB3DA0E0FA0711F4E8
:1001B000E9E025C0EB3BA0E0FA0711F4EAE01FC03C
:1001C000EB37A0E0FA0711F4EBE019C0E73EA0E03E
:1001D000FA0711F4ECE013C0E73DA0E0FA0711F4D0
:1001E000EDE00DC0E73BA0E0FA0711F4EEE007C038
:1001F000E737A0E0FA0711F4EFE001C0EFEF4E2E71
:10020000E0E14E1608F50E940503E0E0EA93A0E065
:100210000E94F802E0E6F2E0FA93EA93E6E7F0E003
:10022000FA93EA93E42DF0E0EC5AFF4FE491FF27B4
:10023000662777270E94E50384E00E94A40228969F
:10024000A0E6B2E00E942603EFEFE51519F00E9448
:100250007E03FACFA8ECB0E00E94CB0368CFFFCFBB
:10026000BA93AA931A930A93AA81BB8112960E9409
:10027000DD03309759F1AA81BB8114960E94DD03FA
:100280008F01309761F00230E0E01E0798F0F8012E
:1002900031978F01AA81BB811496ED93FC93AA81BB
:1002A000BB811296ED91FD913196FE93EE933197BD
:1002B000AC81A083AA81BB810E94DD03FF232AF0C9
:1002C000ED91FD913196FE93EE9306C0AA81BB811C
:1002D000EFEFFFEFED93FC931981088125960895C8
:1002E000BA93AA9326970E94EA0310E0AC85BD85D5
:1002F000E0E0F0E0ED93FC93EA89FB893196EA8B2C
:10030000FB8B3197E4912E2FE03009F415C1E12FDA
:10031000E03039F4253211F411E002C00E9491035B
:100320000AC1E130A9F4253219F40E94910302C1F7
:1003300012E040E000E02D3211F401E0FCC02B326D
:1003400011F44BE2F8C0203211F440E2F4C002C0D4
:10035000E23039F450E013E0203311F40068EBC0D0
:1003600003C0E33009F0E7C0203310F02A3308F06F
:1003700007C0AAE05A9F502DE22FE0535E0FDBC06A
:10038000E22FE33649F40E949803E889F989A481B1
:10039000AA930E949E03CEC0E33741F40E949803C3
:1003A0000E94A4030E9465031E2F0AC0E03761F477
:1003B0000E9498030E94A4030E9471031E2F0860EC
:1003C00002600F7730E034C0E43611F0E93611F402
:1003D000046002C0E53731F4E4E6F0E0EE83FF8329
:1003E00015E00CC0E83511F4086003C0E83709F0E7
:1003F000A1C0EEE6F0E0EE83FF8314E002FF14C03C
:100400000E9498030E94AE03AB85AA233AF4EA85C2
:10041000FB850E94D903EA87FB874DE2403011F04B
:100420001F5F01C00B7F04C00E9498030E94AE03AF
:1004300000FD11C0151778F407FF08C002FF04C0C3
:100440000B7F242F115001C020E301C020E20E9445
:1004500091035150EFCF312F01FF17C03030A1F081
:1004600003FF06C0EE81FF812591EE83FF8305C067
:10047000AE81BF812D91AE83BF830E949103503026
:1004800009F051503150EACF4BC020E3EE81FF819B
:100490000E94E103E887F987EE81FF813296EE83BF
:1004A000FF83E885F985AA85BB85AE17BF0750F0A5
:1004B0002F5FA885B985EA85FB85EA1BFB0BEA87D8
:1004C000FB87EFCF2A3328F003FF02C0295F01C06A
:1004D000295D04FD1AC0213320F4A885B985119740
:1004E00009F409C0531710F000FF01C013C020E247
:1004F00007FF0BC020E3006102FF07C00B7F4A9398
:100500000E949E03503009F051500E9491035030D8
:1005100009F051503150A885B985129708F0B5CF30
:1005200000FF08C0503031F05150E0E2EA930E94E1
:100530009E03F8CF10E0E0CEAC85BD850E94DD03C0
:100540000E94F10364960895FF92F82E26970E9468
:10055000EC030E94B603309719F4EFEFFFEF23C0CE
:10056000DE0116960E94D5038D010E94B603EE832C
:10057000FF83E0E0E887E987DE011A960E94D50351
:100580000E94DD03FA93EA931A930A93E0E3F1E001
:10059000FA93EA93DE011A96A3DE9F01AE81BF8132
:1005A000E0E0EC93F9010E94F3032A96FF9008958E
:1005B000AA93E8B3EF70AE2FE881E07FEA2BE8BBA7
:1005C0008DE08A95F1F7C39A8DE08A95F1F7C3988B
:1005D0008DE08A95F1F777C0AA93A881E9DFE881D9
:1005E000E295E883A881E4DF85E88A95F1F76BC09E
:1005F000AA93E881F0E0E059FD4FE081A981AE0FB8
:10060000EBDF7980688022960895A2E00E94BD0306
:10061000ACE0E2DFA1E00E94BD03E0E06E2E7E2EA2
:100620000895AA93A881AA3011F0791448F0E0E067
:10063000EA936394A62DDCDFA881AA3009F443C0B5
:100640007394C19AA881C8DFC1983DC0BA93AA9398
:100650001A93A981BA81ED91A983BA831E2FE03044
:1006600019F0A12FDEDFF5CF188123960895AA9304
:10067000E7B3E06FE7BBBB9AB99ABA9AC398C1983F
:10068000C2989880E881E058E0937202E881E054D3
:10069000E0937302A4E1B0E00E94CB030E94C30385
:1006A0000E94C3030E94C303A0E282DF88EC90E0B3
:1006B0000197F1F7A8E290DFA4E08EDFA5E88CDFD8
:1006C000A6E08ADFA2DF21960895BA93AA93A991A2
:1006D000B991EE27FF276D91662311F03196FBCF7C
:1006E0000895BA93AA93AA27BB27E991F991059097
:1006F000002011F01196FBCFFD010895EFE0EABB59
:10070000E0EFEBBB88EC90E00197F1F759B2EABB60
:10071000EFE0EBBB88EC90E00197F1F7E9B35E2ADC
:1007200008952A93AD85BE85EF85F88909950895CA
:10073000E889F9893497E88BF98B0895AD85BE85F2
:10074000EF85F88909950895A889B98914960E94BA
:10075000DD03EE83FF83AE81BF810895A889B98947
:1007600014960E94DD03EA87FB870895DE011C963C
:100770000E94D5030E94DD0308950E94EC02A3E0CD
:10078000B0E00C94CB03A0E30E94D80288EC90E088
:100790000197F1F70895109639F0A89580ED97E04C
:1007A0000197F1F71197C9F708950024AF0DB01D17
:1007B0000895F195E195F0400895ED91FC91119720
:1007C00008950590F491E02D08957A936A93FA9331
:1007D000EA9308955A934A933A932A931A930A9361
:1007E00008955D814C813B812A811981088108959A
:00000001FF
