:020000000C945E
:1000020034000C9400000C9400000C9400000C943A
:1000120000000C9400000C9400000C9400000C945E
:1000220000000C9400000C9400000C9400000C944E
:1000320000000C9400000C9400000C9400000C943E
:1000420000000C9400000C9400000C9400000C942E
:1000520000003F065B4F666D7D077F6F0100010068
:1000620005005E000000F894EE27ECBBF1E0FBBF58
:10007200EBBFE5BF8DE0A2E0BB27ED938A95E9F7E0
:1000820080E098E0A0E6ED930197E9F7E0E6F0E082
:1000920085919591009761F0A591B5910590159084
:1000A200BF01F00105900D920197E1F7FB01F0CF3E
:1000B200EFE5EDBFE8E0EEBFC0E6D2E00C946100F0
:1000C20040D0E42DF0E0EC5AFF4F049008BAA89813
:1000D200A99AA5E0B0E00E94CF00E72DF0E0EC5A2B
:1000E200FF4F049008BAA89AA998A5E0B0E00E9430
:1000F200CF00639493948394E2E3E61559F4662463
:100102004394E9E0E41530F444247394E71510F4C1
:1001120077244424E3E0E91549F499245BBA550CA9
:10012200552011F4E1E001C0E52D5E2EE4E1E81571
:1001320031F48824979B02C0979801C0979AC1CF47
:10014200FFCFEFEFEABBE0E0EBBBEFEFE7BBE0E0B6
:10015200E8BBE3E0E4BBE0E0E5BBE0E8E1BBE0E014
:10016200E2BBE3BFE2BFECBFEFBDEEBDEDBDECBD58
:10017200E7BDE6BDEBBDEABDE9BDE8BDE2BDE5BD5B
:10018200E4BDE3BDE9BFE5BFE4BFEAB9E0E8E8B931
:10019200E0E0E0BFE6B9EDB9E6BF0895109639F0A8
:1001A200A89580ED97E00197F1F71197C9F70895A7
:00000001FF
