:040000000C942F002D
:100004000C9400000C9400000C9400000C9400006C
:100014000C9400000C9400000C9400000C9400005C
:100024000C9400000C9400000C9400000C9400004C
:100034000C9400000C9400000C9400000C9400003C
:100044000C9400000C9400000C9400000C9400002C
:100054003F065B4F666D7D077F6FF894EE27ECBB20
:10006400F1E0FBBFEBBFE5BF8DE0A2E0BB27ED9362
:100074008A95E9F780E098E0A0E6ED930197E9F727
:10008400EFE5EDBFE8E0EEBFC0E6D2E00C944A0035
:1000940014D0E52DF0E0EC5AFF4F049008BAA4EF19
:1000A400B1E00E9488005394EAE0E51511F4E0E021
:1000B40001C0E52D5E2EEDCFFFCFEFEFEABBE0E010
:1000C400EBBBEFEFE7BBE0E0E8BBE4BBE5BBE1BBC8
:1000D400E2BBE3BFE2BFECBFEFBDEEBDEDBDECBDE7
:1000E400E7BDE6BDEBBDEABDE9BDE8BDE2BDE5BDEA
:1000F400E4BDE3BDE9BFE5BFE4BFEAB9E0E8E8B9C0
:10010400E0E0E0BFE6B9EDB9E6BF0895109639F036
:10011400A89580ED97E00197F1F71197C9F7089535
:00000001FF
